:020000040800F2
:1000000038A40020550200088D540008F142000871
:10001000B1530008591D0008D17600080000000007
:10002000000000000000000000000000D56C000887
:100030004922000800000000395F0008AD6D00088B
:100040006F0200086F0200086F0200086F020008CC
:100050006F0200086F0200086F0200086F020008BC
:100060006F0200086F0200086F0200086F020008AC
:100070006F0200086F0200086F0200086F0200089C
:100080006F0200086F0200086F0200086F0200088C
:100090006F0200086F0200086F0200086F0200087C
:1000A0006F0200086F0200086F0200086F0200086C
:1000B0006F0200086F0200086F0200086F0200085C
:1000C0006F0200086F0200086F0200086F0200084C
:1000D0006F0200084D76000899760008A97600089E
:1000E0006F0200086F0200086F0200086F0200082C
:1000F0006F0200086F0200086F0200086F0200081C
:100100006F0200086F0200086F0200086F0200080B
:100110006F0200086F0200086F0200086F020008FB
:100120006F0200086F0200086F0200086F020008EB
:100130006F0200086F0200086F0200086F020008DB
:100140006F0200086F0200086F0200086F020008CB
:100150006F0200086F0200086F0200086F020008BB
:100160006F0200086F0200086F0200086F020008AB
:100170006F0200086F0200086F0200080000000014
:100180006F0200086F02000800F002F800F052F859
:100190000AA090E8000C82448344AAF10107DA45E2
:1001A00001D100F047F8AFF2090EBAE80F0013F0E2
:1001B000010F18BFFB1A43F00103184758B30000A2
:1001C00078B30000103A24BF78C878C1FAD8520733
:1001D00024BF30C830C144BF04680C6070470000C1
:1001E0000023002400250026103A28BF78C1FBD840
:1001F000520728BF30C148BF0B60704766290AF01C
:100200009D83642900F02A81752900F027817329D4
:1002100000F0C585002070471FB50AF08AFB00F08A
:10022000C3FD0400002000210AF0F6FAE0601FBDC3
:1002300010B510BD00F0BCFE1146FFF7EDFF08F051
:100240005DFD00F0DAFE03B4FFF7F2FF03BC00F03F
:10025000DDFE00000948804709480047FEE7FEE749
:10026000FEE7FEE7FEE7FEE7FEE7FEE7FEE7FEE766
:1002700004480549054A064B70470000896E00088E
:1002800089010008389E002038A4002038A00020F2
:1002900038A0002053EA020C00F069802DE9F04BF1
:1002A0004FF00006002B1FBFB3FA83F503FA05F4E5
:1002B00024FA05F65E4012BF1643B2FA82F502FA3E
:1002C00005F4C5F120051EBF22FA05FC44EA0C0422
:1002D000203556EA044C4FEA144418BF641C4FF012
:1002E00000084FF00009904271EB030C39D300294C
:1002F00019BFB1FA81F701FA07F6B0FA80F700FAF0
:1003000007F6C7F120071EBF20FA07FC46EA0C06D5
:100310002037B6FBF4FCA7EB0507103F07F01F0BD7
:10032000CBF120060CFA0BFB2CFA06F644BFB346C1
:100330000026202FA4BF5E464FF0000B5BEA060CA0
:1003400008BF4FF0010B19EB0B09ABFB027C48EB2C
:100350000608C01B06FB02CC0BFB03CC71EB0C01A7
:10036000C1E70B46024641464846BDE8F08B13B54F
:100370004FF000004FF00001AFF30080BDE81C40DB
:10038000704700000FB47CB50C0009AA009001D0A2
:100390002044401E084B7B4469460190089800F0B9
:1003A000CCFC05461CB10020694600F0D9FC28466B
:1003B0007CBC5DF814FB0000D109000070B5044658
:1003C00085690068C10601D5302600E02026C007F7
:1003D00007D070BDD4E9012130469047206A401C07
:1003E00020626D1EF6D570BD70B504468569007833
:1003F000C00707D170BDD4E9012120209047206AB1
:10040000401C20626D1EF6D570BD70B50C460546C9
:10041000012A05D02878800600D5EA69002302E089
:10042000012305E05B1C934202D2E05C0028F9D175
:10043000A869E618C01AA861286A184428622846E4
:10044000FFF7BCFF04E0D5E9012114F8010B904748
:10045000B442F8D32846FFF7C7FF70BD2DE9F0413D
:100460000646002410687529314616A510D0AFF352
:100470000080002802DA404213A507E031688A07AD
:1004800001D512A502E0490704D511A5012401E018
:10049000AFF3008000210A2206F1240709E0B0FB37
:1004A000F2FCB0FBF2F302FB1C003030785418462B
:1004B000491C0028F3D123462A463046BDE8F041C6
:1004C00000F0CEB9000000002D0000002B0000005D
:1004D000200000002DE9F05F894604464FF0000A35
:1004E000DFF874B1FB44C0F820A02046E1688847DB
:1004F000002874D0252806D0D4E901219047206A2D
:10050000401C2062F1E700265F462046E1688847EC
:100510002028054607DB312D05D2781910F8200C6C
:1005200008B10643F1E7B00701D526F00406C4F888
:100530001CA00027C4F818A02A2D09D0284607F0CF
:1005400097FC38B304EB8708303DC8F8185019E021
:1005500059F8041B204604EB87029161E168884743
:10056000012F054618D1E069002820DA26F0200680
:100570001DE0D8F8180000EB800005EB4000303893
:10058000C8F818002046E1688847054607F070FC67
:100590000028EED1012F0AD02E2D08D12046E16887
:1005A00088477F1C0546022F46F02006C4DBA06961
:1005B000002803DA404246F00106A061F00701D0AE
:1005C00026F010066C2D0BD0682D09D04C2D39D09B
:1005D0006A2D35D0742D35D07A2D33D016E038E021
:1005E000E1682F4620468847B842054609D16C2F5E
:1005F00026D04FF48060E1680643204688470546D0
:1006000004E06C2F1AD04FF4807006430DB3A5F1AF
:100610004100192802D8203546F400664A4629468A
:10062000204626604E46FFF7E9FD80B101280BD039
:10063000F61D26F0070000F1080956E74020E4E720
:100640008020D8E70020D6E706F104094DE72846C8
:1006500052E7206ABDE8F09F98AC000010B5431C3B
:1006600002E010F8011B71B18107FAD14FF001329D
:1006700002C88C1A8C4314EAC211F9D0C01A0A06B7
:1006800003D0C01E10BDC01A10BD0A0401D0801EC8
:1006900010BD0902FCD0401E10BD40EA010370B538
:1006A0009B072ED14FF00136042A2AD308C810C95F
:1006B0009D1B9D43121F15EAC61517D0D8B2E1B293
:1006C000401A50EA056110D198B2A1B2401A50EA1E
:1006D00005410AD123F07F4024F07F41401A50EABF
:1006E000052102D1180EA0EB146070BDA342DBD02F
:1006F00018BA21BA884201D9012070BD4FF0FF30ED
:1007000070BD0AB9002070BD10F8013B11F8014B13
:1007100063B1A3420AD1521E08D010F8013B11F870
:10072000014B1BB1A34201D1521EEDD1181B70BD6C
:100730004FF000020429C0F0128010F0030C00F00A
:100740001B80CCF1040CBCF1020F18BF00F8012B88
:10075000A8BF20F8022BA1EB0C0100F00DB85FEA56
:10076000C17C24BF00F8012B00F8012B48BF00F822
:10077000012B70474FF0000200B513469446964691
:10078000203922BFA0E80C50A0E80C50B1F12001A4
:10079000BFF4F7AF090728BFA0E80C5048BF0CC052
:1007A0005DF804EB890028BF40F8042B08BF7047B0
:1007B00048BF20F8022B11F0804F18BF00F8012B22
:1007C000704700004FF0013C50F8042B51F8043BF7
:1007D0009A4221D1A2EB0C03934313EACC1317D115
:1007E00050F8042B51F8043B9A4215D1A2EB0C03AC
:1007F000934313EACC130BD150F8042B51F8043B6C
:100800009A4209D1A2EB0C03934313EACC13DBD039
:100810004FF00000704700BFD01A01BAB1FA81F161
:1008200001F0180122FA01F0CB40C1F12001DBB246
:10083000C0B2C01A2CFA01F3D11A914311EAC311C4
:10084000E6D1704770477047704710B500F0B0FAB6
:10085000006810BD10B5044600F0AAFA046010BD8F
:100860002DE9F0470D4699469246044600F12408CA
:100870000168880604D5E06921F01001216000E0DC
:100880000120A84201DD471B00E00027A1697A1979
:1008900002EB0900081AA0612078C00602D42046A5
:1008A000FFF78CFD002608E0D4E901211AF80600C4
:1008B0009047206A401C761C20624E45F4DB20786D
:1008C000C0060AD52046FFF779FD06E0D4E90121EC
:1008D00030209047206A401C2062381EA7F1010793
:1008E000F4DC07E0D4E9012118F805009047206AFC
:1008F000401C2062281EA5F10105F3DC2046FFF70D
:1009000073FD2078000602D50220BDE8F0870120A3
:10091000FBE770472DE9FF4F0C461E464FF0FF37AF
:100920008BB0D2E90001DDF860800A908A46C1F3FD
:100930000A5505B93D46002108464FF00000BAF1BE
:10094000000F00F4400005DA00EB80004FF4400196
:1009500001EA50004FEA9059B9F1010F00DDB946A4
:100960000A9850EA4A000ED044F61050A5F2FF351E
:1009700045432F14B8F1000F1ED07542291E1EDD0D
:10098000C9F100021CE0B8F1010F4FF0000001D0E6
:10099000302103E0F24305E02154401CB042FBDB70
:1009A00030460022002121540B99C1F80880C1E98A
:1009B00000200FB0BDE8F08FBD1B6D1CDEE74A467E
:1009C00000DA694206A800F07DFA06AB93E807005A
:1009D00003AB83E8070050460A9900F01EFB8DE840
:1009E0000700A0F500501F3800900398002D0ADD85
:1009F00042F21F014A460844002303A903906846B7
:100A000000F087FD09E0A0F500504A461F3800239A
:100A100003A90390684600F091FD8DE807000004EB
:100A2000000C03D04FF0FF30410800E01046B8F151
:100A3000000F03D00022009215461EE0751E05D45B
:100A400000F0BAF9303262556D1EF9D5B346012275
:100A5000084302D000227F1C04E02078302801D116
:100A600000227F1E002A099784D01DE0112D07DA8D
:100A700000F0A2F9303262556D1C50EA0102F5D146
:100A8000084302D00098C8B10EE00021681E05E0BE
:100A9000235C625C63542254401E491C8142F7DB94
:100AA000AB46A81B401E0990002004F80B000B98D1
:100AB000099AC0F80880C0E9002B7AE711264FF0A8
:100AC000000857E72DE9F04F88460446D21D22F072
:100AD000070191B0D1E90001CDE90A0106F0FAFD64
:100AE00002460B98C00F01D02D2007E02068810737
:100AF00001D52B2002E0202101EAC000032A099041
:100B000001D0072A05DB03464146204600F09AF94A
:100B10000BE12078800601D5E06900E00620B8F1FD
:100B2000650F814606D0B8F1660F18D0B8F1670F8F
:100B300070D131E00020B9F1110F009001DB1123D9
:100B400001E009F101030AAA01A90CA8FFF7E2FEDE
:100B5000DDE90C70002609F10105834647E001201C
:100B60004B4600904FF000470AAA01A90CA8FFF7D6
:100B7000D1FEDDE90DB00C995D46002610B909F1F2
:100B800001000D18B9EB050003D4C0F1FF3609F1DF
:100B90000105A5EB09002BE0B9F1010F01DA4FF0D7
:100BA00001090020B9F1110F0090484601DD112321
:100BB00000E003460AAA01A90CA8FFF7ABFEDDE995
:100BC0000C704D4600268346207800070AD4AB45BA
:100BD00000DA5D4601A8012D04DD411911F8011C60
:100BE000302907D04F4502DA17F1040F04DA01204B
:100BF00082460FE06D1EEEE7002F02DCED1B3E4447
:100C000003E0781CA84200DD7D1CB81B00F1010A3E
:100C10004FF000472078000703D4AA4501DB4FF0CE
:100C2000FF3A0021B7F1004F0DF143088DF8431052
:100C300024D002202B23002F01DA7F422D230A210A
:100C4000021EA0F1010000DC5FB197FBF1FC97FBF5
:100C5000F1F201FB1C7C17460CF1300C08F801CDB9
:100C6000EEE7A8F1010003702188090501D54521AF
:100C700000E06521A0F1010800F8011C09980FA906
:100C8000A1EB0807FF1D00B10120411901EBEA703B
:100C9000A1693844081A401EA0612078C00602D419
:100CA0002046FFF78BFB099828B1D4E90121904732
:100CB000206A401C20622078C00622D52046FFF71B
:100CC0007DFB1EE0002E04DBB34502DD01A8805D44
:100CD00000E03020D4E901219047206A401C2062C6
:100CE000761CAAF101005FEA000A0AD100F05CF864
:100CF000C0680168405CD4E901219047206A401C2B
:100D00002062281EA5F10105DCDC07E0D4E9012101
:100D100018F8010B9047206A401C2062381EA7F18A
:100D20000107F3DC2046FFF75FFB032011B041E62B
:100D300001694A1C02610878704700B58FB0CDE99F
:100D400001310021059105497944CDE9031011468F
:100D50006846FFF7BFFB0FB000BD0000E5FFFFFFD7
:100D60000A6802F8010B0A607047D1E900239A4231
:100D700002D2531C0B601070704710B5436913B159
:100D8000AFF3008001E0FFF740FB012010BD1278B7
:100D900000F124010A7000224A700122EDE7116877
:100DA0004FF0FF32E9E7000000487047F49D002053
:100DB00000487047D49D002030B5B0F10A024FEAD8
:100DC000900E71F100034EEA817EB0EB0E0061EBF4
:100DD00091014FEA101E4EEA017E10EB0E0041EB2E
:100DE00011114FEA102E4EEA016E10EB0E0041EB8E
:100DF00011214FEA104E4EEA014E10EB0E0041EB6E
:100E00001141401841F100014FEAD00040EA417021
:100E10004FEAD10110EB80054FEA810444EA907457
:100E200044EB01046D1944EB0404521BA3414FF041
:100E3000000348BF0A3200D530BD401C41F100011B
:100E400030BD00002DE9F0411F460446032601682D
:100E5000072A01F4006004DB08B116A505E016A519
:100E600003E008B115A500E015A521F010002060F1
:100E7000A069C01EA0610FB1401EA0612046FFF70F
:100E80009DFA4FB1D4E9012138469047206A401CB1
:100E90002062C01C206206E0206AFAE7D4E9012142
:100EA00015F8010B9047761EF8D22046FFF79CFA02
:100EB000BDE8F0814E414E006E616E00494E460025
:100EC000696E66002DE9F047814616468AB03548BE
:100ED00078440DC88DE80D0032487844801C03AC7E
:100EE0000DC884E80D0041F69B300844372190FB83
:100EF000F1F290FBF1F5A5F1800501FB12041B3C1A
:100F000002D56442012000E00020DFF898A080466E
:100F10000027FA44AAF1BE0A0EE0E0070AD03246E2
:100F2000684607EB470101230AEB810100F006FB4D
:100F30008DE8070064107F1C002CEED1194F7F4410
:100F4000AE3F19E0E80715D007EB04100DF1180AC1
:100F500090E80E008AE80E00C068F04201D19819AE
:100F600008903246012306A903A800F0E7FA03AB74
:100F700083E807006D10641C002DE3D14FF00103DE
:100F800032466946B8F1000F03A802D000F0C1FA5A
:100F900001E000F0D3FAC9E90001C9F808200AB05D
:100FA000BDE8F0875CA3000000487047D49D002096
:100FB0007546FFF7F9FFAE4605006946534620F037
:100FC0000700854618B020B5FFF752F9BDE820406C
:100FD0004FF000064FF000074FF000084FF0000BF5
:100FE00021F00701AC46ACE8C009ACE8C009ACE8A8
:100FF000C009ACE8C0098D46704710B50446AFF390
:1010000000802046BDE81040FFF71DB901491820B7
:10101000ABBEFEE72600020070475FEA400C08BF47
:1010200091F0000F4FEA8C234FEAC12243EA51515D
:101030004FEA1C5018BF00F5F0404FEA300018BFCF
:1010400041F000415FEA6C5C00F02980BCF1FF3F99
:1010500008BF40F080407047130C06BF12044FF0E9
:10106000100C4FF0000C130E04BF12020CF1080C10
:10107000130F04BF12010CF1040C930F04BF920074
:101080000CF1020CD30F04BF52000CF1010C1146FD
:101090004FF00002A0F11F00A0EB0C00704711F010
:1010A000004F08BF704731F000413FF4D5AF0B0C43
:1010B00006BF09044FF0100C4FF0000C0B0E04BFDC
:1010C00009020CF1080C0B0F04BF09010CF1040C10
:1010D0008B0F04BF89000CF1020CCB0F04BF490039
:1010E0000CF1010CCCF12003A0EB0C0022FA03F36D
:1010F00002FA0CF241EA030100F10100704720F00E
:101100007F4C80EA030023F07F47ACEB070303F535
:101110007C5300F0004003F1FF032DE980494FEAC2
:10112000154B09B44FEA144325EA0B4E24EA034851
:101130000FF2042606EB132749083E785FEA3202D5
:1011400003FB0667C7F5000707FB06F64FEA5437AF
:101150004FEAD64606F1020607FB066CCCF1005CAE
:101160004FEA1C472CEA074C07FB06F40CFB06F57C
:1011700004EB15464FEA961634BF00204FF00040AE
:101180004FEAD13706FB07FC4FEA1C4C0CFB0BF770
:10119000D21B03FB0CF761EB07010CFB0EF7B0EB66
:1011A000074072EB17420CFB08F734BFA2EB074273
:1011B000B2EB074261EB17414FEA0C444FEA91074B
:1011C00006FB07FC4FEA1C4C0CFB0BF7B0EBC740CF
:1011D00072EB573203FB0CF734BFA2EBC742B2EB02
:1011E000C74261EB57310CFB0EF7B0EBC70072EB57
:1011F00057720CFB08F734BFA2EBC702B2EBC70271
:1012000061EB5771039F4FEA816141EA921104EB50
:10121000CC044FEAD1374FEA826206FB07FC42EA70
:1012200090124FEA80604FEA1C4C0CFB0BF7D21B6C
:1012300003FB0CF761EB07010CFB0EF7B0EB07406B
:1012400072EB17420CFB08F734BFA2EB0742B2EB7C
:10125000074261EB17414FEA8C554FEA910704EBC7
:101260009C2406FB07FC4FEA1C4C0CFB0BF7B0EB75
:10127000C74072EB573203FB0CF734BFA2EBC742F7
:10128000B2EBC74261EB57310CFB0EF7B0EBC70076
:1012900072EB57720CFB08F734BFA2EBC702B2EB3C
:1012A000C70261EB577115EB4C254FEA816141EAAA
:1012B00092114FEA82624FEAD13742EA901206FB5E
:1012C00007FC44F100044FEA80604FEA1C4C0CFB21
:1012D0000BF7D21B03FB0CF761EB07010CFB0EF7BE
:1012E000B0EB074072EB17420CFB08F734BFA2EBE0
:1012F0000742B2EB074261EB174115EB1C154FEAB1
:10130000813141EA92414FEA823242EA90424FEA09
:1013100080304FEA0C7644F1000448EA03434EEA79
:101320000B484FF0000EB2EB080C71EB030724BF23
:10133000624639464EEB0E0E4FF0000B001852413C
:1013400049414BEB0B0BB2EB080C71EB03077BF144
:10135000000B24BF624639464EEB0E0E4FF0000BD9
:101360000018524149414BEB0B0BB2EB080C71EBEF
:1013700003077BF1000B24BF624639464EEB0E0E8D
:1013800051EA020718BF46F0010616EB0E7655F13A
:10139000000254F1000103D5BDE88901BDE80088D1
:1013A000BDE88901BDE80048B619524141EB010191
:1013B000A3F10103704780807F7E7D7C7B7A797802
:1013C000777676757473727171706F6E6E6D6C6C0A
:1013D0006B6A6A69686867666665646463636261AC
:1013E0006160605F5F5E5E5D5D5C5C5B5B5A5A592D
:1013F0005958585757565655555554545353525299
:101400005251515050504F4F4F4E4E4D4D4D4C4CF0
:101410004C4B4B4B4A4A4A49494948484847474739
:101420004746464645454544444444434343434276
:10143000424242414141002B9C4630D477002BD0A0
:101440001CB54FEA370703B44FF010004FF01001FE
:10145000BAF1000F06D0BCF1000FDCBF40F008006D
:1014600040F008014FF000000FBCBDE810400BF148
:10147000010BBBF1010F08BF5FEA170722BF12F192
:10148000010211F101014FF0004143F1000300F0AE
:10149000004043EA00007047F9D35708D0E746EA16
:1014A000064613F1400F4FEA16461FDD13F1200FD9
:1014B000DFBF16430A46002120335B42BED0C3F192
:1014C000200746EA064602FA07F74FEA164646EABA
:1014D0000706C3F1200722FA03F201FA07F721FAFF
:1014E00003F14FF0000342EA0702A7E746EA0206CB
:1014F00046EA06464FEA164646EA0106BCBF46EAF9
:101500000646360C4FF000034FF000024FF000018A
:1015100094E72DE9804C9A46934670B491E83800E0
:1015200007C831EA400C48BF34EA430C03D5FFF743
:10153000E6FDFFF780FFF0BCBDE8008C2DE9804C94
:101540009A46934670B491E8380007C810F0804F6F
:1015500008BF13F0804F03D100F005F8FFF76BFFD1
:10156000F0BCBDE8008C20F07F4780EA030023F048
:101570007F4C07EB0C03A3F57C5300F00040A3F174
:10158000FE0392F0000F00F0B38095F0000F00F022
:1015900077802DE901494FEA11404FEA144621EACC
:1015A000004800FB06FC24EA064708FB06F607FB9A
:1015B00008F800FB07F718EB06484CEB164C4FEA0F
:1015C000124B18EB07484FEA15464CEB174022EA3E
:1015D0000B4E0BFB06FC25EA06470EFB06F607FB47
:1015E0000EFE0BFB07F71EEB064E4CEB164C4FF0B6
:1015F00000061EEB074E4CEB174B18EB0B0840F1A7
:10160000000018EB0E0B58EB000840F100008F1A99
:101610004FF000013CBFC943661B14BFB5EB040C7F
:1016200000213CBFC943F61B4FEA17444EEA8E0E19
:1016300027EA04454FEA1C4704FB07622CEA074CE3
:1016400005FB07F70CFB05F604FB0CFC16EB074645
:1016500042EB174216EB0C4642EB1C421BEB060614
:1016600058EB0202414146EA9E0601D5BDE80189D8
:10167000B619524141EB0101A3F10103BDE8018913
:101680004FEA14454FEA114724EA054621EA074C80
:1016900005FB07F406FB07F70CFB06F105FB0CFC4A
:1016A00011EB074144EB17444FEA124711EB0C4191
:1016B00044EB1C4422EA074C05FB07F206FB07F744
:1016C0000CFB06F605FB0CFC16EB074642EB17423B
:1016D00016EB0C4642EB1C456A1854F1000148BF5A
:1016E0007047B619524141EB0101A3F10103704764
:1016F00095F0000F37D04FEA11424FEA144721EA24
:10170000024624EA074C02FB07F106FB07F70CFB35
:1017100006F402FB0CFC14EB074441EB17414FEAC3
:10172000154714EB0C4441EB1C4125EA074C02FB26
:1017300007F506FB07F70CFB06F602FB0CFC16EBA5
:10174000074645EB174516EB0C4645EB1C421219B4
:1017500051F1000148BF7047B619524141EB0101F8
:10176000A3F1010370474FEA14454FEA114724EAF9
:10177000054621EA074C05FB07F106FB07F70CFBC2
:1017800006F24FF0000605FB0CFC12EB074241EBA2
:10179000174112EB0C4251EB1C4148BF70479218A5
:1017A00041EB0101A3F1010370470000014890EDF6
:1017B000000A704778000020B2EE080A014880ED68
:1017C000000A70477800002000B5FFF7EFFF0848D7
:1017D00080ED000A90ED000AF2EE060AB4EEE00A8F
:1017E000F1EE10FA01D2012000BD0020FCE700005C
:1017F0007800002010B52DED028B1648007C0128E2
:1018000004D09FED150ABDEC028B10BD1148C089B4
:1018100000EE100AB8EE400ADFED100A80EE208AD2
:101820000C48D0ED000A9FED0E1A60EE810A60EEC2
:10183000880AB0EE600A06F079F90648D0ED020A8F
:1018400090ED011AF0EE608A41EE008AB0EE680A6F
:10185000D9E70000201100200000000000004843EC
:10186000DB0FC94010B514210448FEF783FF0020A8
:10187000024908740249088010BD000020110020B0
:10188000A800002010B52DED028B3848007C0128FF
:1018900002D0BDEC028B10BD3448808934490988E0
:1018A000884202DC00F048FAF3E7FFF7A3FFB0EE4E
:1018B000408ABDEEC80A10EE104A002C00DDFA3452
:1018C000002C00DAFA3C234622462146204605F049
:1018D00003FA00F047FF01F055F92549098801EBAB
:1018E0004101244A42F831002148008800EB4000C1
:1018F000114601EBC00080ED018A1F4890ED000AFF
:101900001B48008800EB400001EBC00080ED020A9C
:101910001A4890ED000A1648008800EB400001EBE1
:10192000C00080ED030A164890ED000A10480088B8
:1019300000EB400001EBC00080ED040A114890ED7F
:10194000000A0B48008800EB400001EBC00080ED6E
:10195000050A07480088401C054908800348C089DB
:10196000401C0249C88100BF93E7000020110020FD
:10197000A800002034110020600000206400002036
:10198000680000206C00002030B52DED0A8BABB054
:101990009FA280210BA8FEF7F5FC0BA8FEF75EFEC8
:1019A00084B2642322460BA99D4802F041FC9DA20B
:1019B00080210BA8FEF7E6FC0BA8FEF74FFE84B2D1
:1019C000642322460BA9964802F032FC994890ED18
:1019D000000A10EE101A084608F03AFF41EC180B06
:1019E0008DED008B94A280210BA8FEF7CBFC0BA8F9
:1019F000FEF734FE84B2642322460BA9884802F025
:101A000017FC8C4890ED010A10EE101A084608F0F9
:101A10001FFF41EC180B8DED008B8AA280210BA8D3
:101A2000FEF7B0FC0BA8FEF719FE84B26423224631
:101A30000BA97B4802F0FCFB7E4890ED020A10EEF9
:101A4000101A084608F004FF41EC180B8DED008BCE
:101A500080A280210BA8FEF795FC0BA8FEF7FEFDE7
:101A600084B2642322460BA96D4802F0E1FB7D4855
:101A700003887DA280210BA8FEF784FC0BA8FEF74B
:101A8000EDFD84B2642322460BA9654802F0D0FB29
:101A9000C82379A280210BA8FEF774FC0BA8FEF7DF
:101AA000DDFD84B2642322460BA95D4802F0C0FB31
:101AB000FA2376A280210BA8FEF764FC0BA8FEF7A0
:101AC000CDFD84B2642322460BA9554802F0B0FB39
:101AD00072A280210BA8FEF755FC0BA8FEF7BEFDF5
:101AE00084B2642322460BA94D4802F0A1FB0024D6
:101AF00068E004EB44006D4A02EBC00090ED050A7B
:101B000010EE101A084608F0A3FE41EC180B04EB87
:101B10004400664A02EBC00090ED040A10EE101A71
:101B2000084608F095FE41EC190B04EB44005F4AAF
:101B300002EBC00090ED030A10EE101A084608F000
:101B400087FE41EC1A0B04EB4400584A02EBC0003C
:101B500090ED020A10EE101A084608F079FE41ECEA
:101B60001B0B04EB4400514A02EBC00090ED010A4C
:101B700010EE101A084608F06BFE41EC1C0B8DEDC0
:101B8000088B8DED069B8DED04AB8DED02BB8DEDCD
:101B900000CB04EB4400454951F8303044A2802189
:101BA0000BA8FEF7EFFB0BA8FEF758FD85B232231A
:101BB0002A460BA91A4802F03BFB012000F0BCFEAC
:101BC000601C84B227480088844292DB40A28021B6
:101BD0000BA8FEF7D7FB0BA8FEF740FD84B26423E9
:101BE00022460BA90E4802F023FB3CA280210BA841
:101BF000FEF7C8FB0BA8FEF731FD84B26423224632
:101C00000BA9074802F014FB2BB0BDEC0A8B30BDCA
:101C1000424F44455F53544152540D0A00000000A6
:101C2000F40500206D6F64652C6F66666C696E65E7
:101C30000D0A000020110020667265712C252E32DD
:101C4000660D0A0070776D5F616D702C252E316610
:101C50000D0A000070776D5F626961732C252E316B
:101C6000660D0A00A800002073616D706C65732C0E
:101C700025640D0A0000000073616D706C655F7271
:101C80006174652C25640D0A0000000064656164C0
:101C90005F7A6F6E652C25640D0A00004441544143
:101CA0005F53544152540D0A0000000034110020CB
:101CB000256C752C252E31662C252E34662C252E70
:101CC00034662C252E34662C252E34660D0A000031
:101CD000444154415F454E440D0A0000424F444583
:101CE0005F454E440D0A000010B52DED048BB0EE9B
:101CF000408AF0EE608AB0EE419A04460B4880EDCF
:101D0000008AC0ED018A80ED029A84810020074993
:101D1000C8810120087400200549088048F6A041C8
:101D20000448FEF727FDBDEC048B10BD20110020F8
:101D3000A80000203411002010B5022005490874C5
:101D400000231A461946184604F0C6FFFFF71CFE8A
:101D500010BD00002011002000BFFEE710B50446B2
:101D600001221102064800F007FF204600F0E4FDC2
:101D700000224FF48071024800F0FEFE10BD00000A
:101D80000000024000B587B0142102A8FEF7F2FC63
:101D900000BF002001901048006840F001000E498B
:101DA00008600846006800F00100019000BF00BF15
:101DB000881502900120039000200490059002A94C
:101DC000064800F0CDFD00224FF48071034800F07A
:101DD000D3FE07B000BD00003038024000000240D2
:101DE00010B5044604F0FAFB10BD000030B52DED2F
:101DF0000C8B89B00446089402E00898401C0890B7
:101E00000898007818B1089800783A28F5D1089811
:101E100000783A2809D034A004F094FC3AA004F0E9
:101E200091FC09B0BDEC0C8B30BD0898401C0890AB
:101E300008A807F029FCF0EE408A02E00898401C50
:101E40000890089800782C28F8D008A807F01CFC07
:101E5000B0EE408A02E00898401C0890089800788C
:101E60002C28F8D008A807F00FFCB0EE409A9FEDA0
:101E70002F0A28EE000AB0EE408AF0EE480AB0EED3
:101E8000680A03F0F5FF19EE100A08F0E1FC41ECD6
:101E90001A0B9FED260AC8EE000A10EE905A28464B
:101EA00008F0D6FC41EC1B0B18EE100A08F0D0FC31
:101EB00041EC1C0B18EE900A08F0CAFC41EC1D0B1B
:101EC0008DED06AB8DED04BB8DED02CB8DED00DB12
:101ED00017A24FF400712248FEF754FA204804F08C
:101EE00031FC00BF9DE700004552523A2055736116
:101EF00067653A20244D5049443A6B702C6B692C2D
:101F00006B64210D0A0000004E6F74653A204B6926
:101F1000206175746F2D636F6D70656E736174658C
:101F2000732064743D31306D730D0A000AD7233C71
:101F30004F4B3A20504944204B503D252E316620CE
:101F40004B493D252E316620287261773D252E3183
:101F50006629204B443D252E32660D0A0000000004
:101F6000080F002010B5044604F082FB10BD0000ED
:101F700010B50446012000F0D3F89FED0D0A0D487E
:101F800080ED000A9FED0A0A0B4880ED000A9FEDE4
:101F9000080A0A4880ED000A03F04CFF00231A46A5
:101FA0001946184604F098FE05A004F0CBFB10BDBE
:101FB0000000000080000020840000208800002035
:101FC0004F4B3A204D6563616E756D2073746F7071
:101FD0007065640D0A00000010B52DED068B88B009
:101FE0000446079402E00798401C07900798007881
:101FF00018B1079800783A28F5D1079800783A2860
:1020000006D02DA004F09EFB08B0BDEC068B10BDE1
:102010000798401C079002E00798401C079007981B
:1020200000782C28F8D007A807F02EFB294880ED6F
:10203000000A02E00798401C0790079800782C28B7
:10204000F8D007A807F020FB234880ED000A02E043
:102050000798401C0790079800782C28F8D007A80C
:1020600007F012FB1D4880ED000A012000F058F82F
:102070001A48006808F0ECFB41EC1A0B164800689F
:1020800008F0E6FB41EC180B1248006808F0E0FB92
:1020900041EC190B8DED04AB8DED028B8DED009BAA
:1020A0000FA24FF400711748FEF76CF9154804F0C1
:1020B00049FB00BFA8E700004552523A2055736122
:1020C00067653A20244D563A76782C76792C767AC4
:1020D000210D0A00800000208400002088000020DC
:1020E0004F4B3A204D562076783D252E326620768D
:1020F000793D252E326620767A3D252E32660D0AF0
:1021000000000000080F0020014800687047000030
:10211000A40000200148007870470000A0000020C3
:1021200010B5044604480470022C03D100F02AFDC7
:102130000249086010BD0000A0000020A40000209B
:1021400010B500F01FFD0149086010BDA40000207B
:1021500010B52DED028B92B000241DA004F0F2FA10
:1021600022A004F0EFFA27A004F0ECFA00BF1DE073
:10217000234622462146204604F0AEFD4FF49670D9
:1021800000F0DAFB00F0EEFA2448006808F060FB8B
:1021900041EC180B8DED008B234621A2402102A8B3
:1021A000FEF7F0F802A804F0CDFA643440F6B83037
:1021B0008442DDDD00231A461946184604F08CFDE2
:1021C0001BA004F0BFFA12B0BDEC028B10BD0000E2
:1021D0000D0A3D3D3D20446561647A6F6E65205473
:1021E000657374203D3D3D0D0A00000050574D20A1
:1021F0002D3E20537065656420286D2F73290D0ACC
:10220000000000002D2D2D2D2D2D2D2D2D2D2D2DB2
:102210002D2D2D2D2D2D2D0D0A00000060000020EC
:10222000253464202D3E20252E33660D0A00000043
:102230003D3D3D205465737420436F6D706C657433
:1022400065203D3D3D0D0A007047000010B52DEDA5
:10225000048BF0EE408AB0EE609AB0EE418AB0EEA8
:10226000680A06F0F3FA18B99FED740AF0EE408A96
:10227000B0EE490A06F0EAFA18B99FED700AB0EE1E
:10228000409AB0EE480A06F0E1FA18B99FED6B0AE1
:10229000B0EE408AB0EE0C1AF8EE0C0AB0EE680A06
:1022A00005F0F8FDF0EE408AB0EE0C1AF8EE0C0ADC
:1022B000B0EE490A05F0EEFDB0EE409AB0EE0C1A11
:1022C000F8EE0C0AB0EE480A05F0E4FDB0EE408AE4
:1022D0005B48D0ED000AB0EE600AB7EE001AF0EEEF
:1022E000680A08F01BFA564880ED000AD0ED010A92
:1022F000B0EE600AB7EE001AF0EE490A08F00EFAE6
:102300004F4880ED010AD0ED020AB0EE600AB7EE48
:10231000001AF0EE480A08F001FA494880ED020A76
:10232000F5EEC08AF1EE10FA07D190ED000ADFED6C
:10233000450A20EE200A80ED000AB5EEC09AF1EEC3
:1023400010FA08D13E4890ED010ADFED3E0A20EE7A
:10235000200A80ED010AB5EEC08AF1EE10FA08D12C
:10236000374890ED020ADFED370A20EE200A80EDB3
:10237000020A334890ED000AF0EE408A90ED010A1F
:10238000B0EE409A90ED020AB0EE408A38EEC90AEB
:10239000DFED2D0A08EE600A2C4880ED000A38EEC9
:1023A000890ADFED290A08EE600A294880ED000A53
:1023B00038EE890ADFED240A08EE200A254880ED70
:1023C000000A38EEC90ADFED200A08EE200A22488A
:1023D00080ED000AB0EE0C1AF8EE0C0A1B4890EDE6
:1023E000000A05F057FD194880ED000AB0EE0C1AFE
:1023F000F8EE0C0A164890ED000A05F04BFD144863
:1024000080ED000AB0EE0C1AF8EE0C0A114890EDBF
:10241000000A05F03FFD0F4880ED000AB0EE0C1AEF
:10242000F8EE0C0A0C4890ED000A05F033FD0A485E
:1024300080ED000ABDEC048B10BD00000000000020
:102440006C090020CDCC4C3F77BE1F3E50000020D1
:1024500054000020580000205C00002070B586B0B9
:1024600006460C461546142101A8FEF783F901948F
:10247000022002900120039002200490059501A9FA
:10248000304600F06DFA06B070BD000010B50024B3
:1024900000F012F8044300F063F8044300F0A4F8DD
:1024A000044300F0E5F8044314B901200149087021
:1024B000204610BD2500002008B500BF0020009078
:1024C0002348006840F00100214908600846006880
:1024D00000F00100009000BF00BF00BF002000908E
:1024E0001B481038006840F0010019491039086095
:1024F0000846006800F00100009000BF00BF00BF68
:10250000002000900846006840F00200086008467D
:10251000006800F00200009000BF00BF0122D1035C
:102520000C48FFF79BFF012208210B48FFF796FF9D
:102530004FF08041094800F0DFF810B14FF0FF3054
:1025400008BD002005490968486200BFF8E700009F
:10255000403802400000024000040240CC07002046
:1025600008B500BF002000901B48006840F0020042
:10257000194908600846006800F00200009000BF9A
:1025800000BF00BF0020009013481038006840F0E2
:1025900002001149103908600846006800F0020086
:1025A000009000BF00BF022210210C48FFF756FF29
:1025B000022220210948FFF751FF0949094800F08C
:1025C0009BF810B14FF0FF3008BD002005490968A5
:1025D000486200BFF8E700004038024000040240B3
:1025E000000400401408002008B500BF002000903F
:1025F0001B48006840F0040019490860084600685C
:1026000000F00400009000BF00BF00BF0020009059
:1026100013481038006840F0020011491039086072
:102620000846006800F00200009000BF00BF0222D0
:1026300040210C48FFF712FF022280210948FFF7D2
:102640000DFF0949094800F057F810B14FF0FF306D
:1026500008BD002005490968486200BFF8E700008E
:102660004038024000040240000800405C0800209E
:1026700008B500BF002000901B48006840F008002B
:10268000194908600846006800F00800009000BF83
:1026900000BF00BF0020009013481038006840F0D1
:1026A00001001149103908600846006800F0010077
:1026B000009000BF00BF022201210C48FFF7CEFEB0
:1026C000022211460948FFF7C9FE0949094800F0EE
:1026D00013F810B14FF0FF3008BD0020054909681C
:1026E000486200BFF8E700004038024000000240A6
:1026F000000C0040A408002070B58AB004460D46C6
:10270000242101A8FEF736F8256000206060002132
:10271000A1604FF6FF71E16000212161A1610320FA
:1027200001900020029001200390002004900F20CF
:1027300005900020069001200790002008900F20AF
:10274000099001A9204600F039FF064626B93C2130
:10275000204600F098FF064630460AB070BD72B6BB
:1027600000BFFEE770B52DED048B022004F06CFA7B
:1027700008EE900A032004F067FA0446042004F0EF
:1027800063FA0546052004F05FFA09EE100A2E48A8
:10279000C0ED008A4460856080ED039A9FED2B0AAE
:1027A000B0EE408AB8EEE80A20EE080A284880ED2C
:1027B000000A604200EE100AB8EEC00A20EE080AD5
:1027C000244880ED000A684200EE100AB8EEC00A04
:1027D00020EE080A204880ED000AB8EEC90A20EE73
:1027E000080A1E4880ED000A194890ED000A06F01C
:1027F0002DF820B99FED1A0A154880ED000A1548FA
:1028000090ED000A06F022F820B99FED150A114854
:1028100080ED000A104890ED000A06F017F820B984
:102820009FED0F0A0C4880ED000A0C4890ED000A5D
:1028300006F00CF820B99FED0A0A084880ED000A5E
:10284000BDEC048B70BD00005C09002022058239BC
:102850006000002064000020680000206C00002060
:102860000000000070B50446A56D00F08BF9064627
:1028700094F83500022808D08020606500BF002051
:1028800084F8340000BF012070BD2068006820F08B
:102890001600216808602068406920F080002168E7
:1028A0004861206C08B9A06C28B12068006820F04D
:1028B0000800216808602068006820F00100216895
:1028C000086010E000F05EF9801B05280BD920207D
:1028D0006065032084F8350000BF002084F83400D0
:1028E00000BF0320D0E72068006800F00100002846
:1028F000E8D194F85C103F208840A860012084F85B
:10290000350000BF002084F8340000BF00BFBBE7E3
:10291000014691F83500022803D080204865012047
:102920007047052081F835000868006820F0010034
:102930000A6810600020F3E770B5044600F022F941
:1029400006462546681C10B104480078054400BFBF
:1029500000F018F9801BA842FAD370BDB400002023
:10296000F8B502460B460025002400200021D6E0E1
:10297000012606FA01F51E6806EA0504AC4274D188
:102980001E7906F00306012E04D01E7906F0030618
:10299000022E13D190684F000326BE40B0434F0073
:1029A000DE68BE4030439060506801268E40B043E0
:1029B0001E79C6F300168E40304350601E7906F033
:1029C0000306032E09D0D0684F000326BE40B04353
:1029D0004F009E68BE403043D0601E7906F003066B
:1029E000022E13D1CF0802F1200656F827004E0719
:1029F000F70E0F26BE40B0434F07FF0E1E69BE40C4
:102A00003043CF0802F1200646F8270010684F0037
:102A10000326BE40B0431E7906F003064F00BE40B9
:102A2000304310605E6806F44036002E76D000BF5A
:102A3000002600963C4E366846F480463A4F3E608B
:102A40003E46366806F48046009600BF00BF374E0B
:102A50008F0856F827008E07370F0F26BE40B04369
:102A6000334EB24202D1002624E057E0314EB2424A
:102A700001D101261EE0304EB24201D1022619E0FA
:102A80002E4EB24201D1032614E02D4EB24201D1A6
:102A900004260FE02B4EB24201D105260AE02A4E51
:102AA000B24201D1062605E0284EB24201D10726E6
:102AB00000E008268F073F0FBE4030431B4E8F08B3
:102AC00046F82700224E3068A0435E6806F4801660
:102AD00006B120431E4E3060361D3068A0435E684C
:102AE00006F4001606B12043194E361D3060184E0C
:102AF000361F3068A0435E6806F4003606B12043F6
:102B0000134E361F3060361F3068A0435E6806F4EF
:102B1000803606B120430E4E083E3060491C102915
:102B2000FFF426AFF8BD00004438024008380140E9
:102B3000000002400004024000080240000C024075
:102B4000001002400014024000180240001C024025
:102B5000083C0140024613690B400BB1012000E024
:102B60000020704710B5426921EA020302EA01041D
:102B700043EA0443836110BD0AB1816101E00B04A3
:102B8000836170470148006870470000AC00002076
:102B90000348006803490978084401490860704700
:102BA000AC000020B400002010B50D48006840F4CF
:102BB00000700B4908600846006840F480600860B7
:102BC0000846006840F480700860032000F0A6F812
:102BD0000F2000F007F800F02BF8002010BD0000D7
:102BE000003C024070B504460E4800784FF47A71FC
:102BF000B1FBF0F00C490968B1FBF0F5284600F094
:102C00002FFC08B1012070BD102C07D200222146F4
:102C1000501E00F045F80548046001E00120F2E78D
:102C20000020F0E7B4000020B8000020B000002031
:102C300008B500BF002000900E48006840F48040B6
:102C40000C4908600846006800F48040009000BF0E
:102C500000BF00BF00200090081F006840F08050B7
:102C6000091F08600846006800F08050009000BF0F
:102C700000BF08BD443802400146084600280DDB6D
:102C800000BF00BF00F01F0301229A4043099B00D0
:102C900003F1E023C3F8002100BF00BF00BF70476D
:102CA0002DE9F05F80460D461646002704F03EFDF4
:102CB000074639462A46334601F00700C0F1070AA5
:102CC000BAF1040F02D94FF0040A01E0C0F1070A7B
:102CD000D14600F1040ABAF1070F02D24FF0000A00
:102CE00001E0A0F1030AD4464FF0010A0AFA09FAFA
:102CF000AAF1010A0AEA020A0AFA0CFA4FF0010BD9
:102D00000BFA0CFBABF1010B0BEA030B4AEA0B04C9
:102D10002146404604F012FDBDE8F09F00BF00F0E0
:102D20000702064B19684FF6FF031940044B0B438B
:102D300043EA0221014B196000BF70470CED00E02F
:102D40000000FA0570B504460D460CB9012070BDAF
:102D50005848006800F00700A84209D255490D7094
:102D60000846006800F00700A84201D00120EEE705
:102D7000207800F0020002281DD1207800F0040025
:102D8000042805D14C48006840F4E0504A490860E6
:102D9000207800F00800082805D14748006840F472
:102DA0006040454908604448006820F0F000A16890
:102DB000084341490860207800F00100A8B360682A
:102DC000012807D13C4808380068C0F34040B8B932
:102DD0000120BCE76068022802D06068032807D1A0
:102DE000354808380068C0F3406048B90120AEE7B4
:102DF000314808380068C0F3400008B90120A6E750
:102E00002D48006820F00300616808432A490860E3
:102E1000FFF7B8FE064609E0FFF7B4FE801B41F25B
:102E20008831884202D9032091E707E022480068F0
:102E300000F00C006168B0EB810FEDD11D48006817
:102E400000F00700A84209D91A490D700846006829
:102E500000F00700A84201D0012078E7207800F0B8
:102E60000400042807D11448006820F4E050E16809
:102E7000084311490860207800F00800082808D1AC
:102E80000D48006820F46040216940EAC1000A4909
:102E9000086000F03FF808490968C1F30311074AC8
:102EA000515CC8400649086006480068FFF79AFE72
:102EB00000204CE7003C02400838024068B100089E
:102EC000B8000020B00000200148006870470000F2
:102ED000B800002000B5FFF7F7FF04490968C1F307
:102EE0008221034A515CC84000BD000008380240FE
:102EF00078B1000800B5FFF7E7FF04490968C1F39E
:102F00004231034A515CC84000BD0000083802400D
:102F100078B100082DE9F047002400250026A146DD
:102F20002548006800F00C0020B1042805D00828CE
:102F30003AD105E0DFF8849039E0DFF8849036E09C
:102F40001D48001F006800F03F041B48001F006878
:102F500000F4800078B11A481749091F0968C1F3C5
:102F60008811A0FB01700146224600233846FDF778
:102F700091F905460EE011480F49091F0968C1F390
:102F80008811A0FB01700146224600233846FDF758
:102F900081F905460848001F0068C0F30140401C45
:102FA0004600B5FBF6F902E0DFF8109000BF00BF65
:102FB0004846BDE8F0870000083802400024F400CD
:102FC00040787D01F8B504460CB90120F8BD2078A1
:102FD00000F00100002874D0F948006800F00C00EF
:102FE00004280DD0F648006800F00C00082813D122
:102FF000F348001F006800F48000B0F5800F0BD18B
:10300000EF4808380068C0F34040002859D0606895
:10301000002856D10120D9E700BF6068B0F5803F95
:1030200008D1E7480838006840F48030E44908399E
:1030300008601EE06068B0F5A02F0DD1E0480838A8
:10304000006840F48020DE490839086008460068BE
:1030500040F4803008600CE0D9480838006820F45B
:103060008030D749083908600846006820F480207D
:10307000086000BF606890B1FFF784FD054606E078
:10308000FFF780FD401B642801D903209EE7CC4850
:1030900008380068C0F340400028F1D011E0FFF785
:1030A00071FD054606E0FFF76DFD401B642801D960
:1030B00003208BE7C24808380068C0F3404000286E
:1030C000F1D1207800F0020002285FD1BC480068EE
:1030D00000F00C0058B1BA48006800F00C00082855
:1030E0001CD1B748001F006800F48000B0B9B44894
:1030F00008380068C0F3400020B1E068012801D022
:10310000012063E7AE480838006820F0F800216924
:1031100040EAC100AA490839086037E0E06800B316
:103120000120A8490860FFF72DFD054606E0FFF7DE
:1031300029FD401B022801D9032047E7A048083891
:103140000068C0F340000028F1D09D4808380068AE
:1031500020F0F800216940EAC10099490839086067
:1031600014E0002097490860FFF70CFD054606E0D3
:10317000FFF708FD401B022801D9032026E79048ED
:1031800008380068C0F340000028F1D1207800F032
:10319000080008282CD16069A8B101208A4908607C
:1031A000FFF7F0FC054606E0FFF7ECFC401B0228A9
:1031B00001D903200AE782486C300068C0F3400060
:1031C0000028F1D014E000207F490860FFF7DAFC06
:1031D000054606E0FFF7D6FC401B022801D9032074
:1031E000F4E677486C300068C0F340000028F1D165
:1031F000207800F00400042870D10027704838308F
:10320000006800F0805090B900BF002000906C482A
:103210003830006840F0805069493831086008460D
:10322000006800F08050009000BF00BF0127674891
:10323000006800F48070B0B96448006840F48070A1
:1032400062490860FFF79EFC054606E0FFF79AFC1E
:10325000401B022801D90320B8E65C48006800F44E
:1032600080700028F2D000BFA068012808D154481F
:103270006830006840F001005149683108601DE085
:10328000A06805280DD14E486830006840F0040061
:103290004B49683108600846006840F0010008604A
:1032A0000CE047486830006820F00100444968316C
:1032B00008600846006820F00400086000BFA068AD
:1032C000A8B1FFF75FFC054609E0FFF75BFC401B78
:1032D00041F28831884202D9032077E626E0384857
:1032E00068300068C0F340000028EED013E0FFF71C
:1032F00049FC054608E0FFF745FC401B41F28831D8
:10330000884201D9032061E62D4868300068C0F387
:1033100040000028EFD1012F07D12948383000683C
:1033200020F0805026493831086000BFA06900288D
:1033300045D02348006800F00C0008285DD0A06943
:10334000022845D100201F490866FFF71BFC0546EF
:1033500006E0FFF717FC401B022801D9032035E6E1
:10336000174808380068C0F340600028F1D1D4E95C
:1033700007010843616A40EA81110122A06AC2EB99
:10338000500041EA00412C20005D41EA00600C49F8
:10339000091F086001200B490866FFF7F3FB05468B
:1033A00006E0FFF7EFFB401B022801D903200DE6E2
:1033B000034808380068C0F340600028F1D049E0B5
:1033C0000838024000004742800E4742007000402B
:1033D000002021490866FFF7D5FB054606E0FFF708
:1033E000D1FB401B022801D90320EFE51B480068F0
:1033F000C0F340600028F2D12CE0A069012800D180
:10340000E4E51648001D0668A069012820D006F4EE
:103410008001E06981421BD106F03F01206A8142B0
:1034200016D147F6C0703040616AB0EB811F0FD1F2
:1034300006F440310122A06AC2EB5000B1EB004F0C
:1034400006D106F070612C20005DB1EB006F01D059
:103450000120BBE50020B9E50000474200380240EA
:1034600070B504462546681EB0F1807F01D3012067
:103470000FE0681E4FF0E02148610F214FF0FF3050
:1034800004F05CF900204FF0E0218861072008611A
:10349000002070BD10B50346002200BF93F83C0029
:1034A000012801D1022010BD012083F83C0000BF9B
:1034B00022F0FF00CC6840EA040222F440708C68DD
:1034C00040EA040222F480604C6840EA040222F4DC
:1034D00000600C6840EA040222F480500C6940EA63
:1034E000040222F400504C6940EA040222F48040B5
:1034F000CC6940EA04021868426400BF002083F8E7
:103500003C0000BF00BFCEE730B502460B4600BF0F
:1035100092F83C00012801D1022030BD012082F840
:103520003C0000BF022082F83D001068446810682B
:10353000816824F070041868044310684460184DD2
:103540001068A8421BD01068B0F1804F17D0154DFD
:103550001068A84213D0144D1068A8420FD0134D24
:103560001068A8420BD0124D1068A84207D0114D28
:103570001068A84203D0104D1068A84205D121F070
:1035800080015868014310688160012082F83D0085
:1035900000BF002082F83C0000BF00BFBDE7000074
:1035A000000001400004004000080040000C004002
:1035B0000004014000400140001800402DE9F041A6
:1035C00004460D4614B90120BDE8F08194F83D0091
:1035D00028B9002084F83C00204600F053F802206F
:1035E00084F83D002068806844F207018843216820
:1035F0008860211D206803F051FC2068D0F8088005
:10360000206886692068076A286840EA080840F24E
:1036100003308643A969A86840EA0120064340F6C2
:103620000C4086434FF2F0008643E969E86840EABF
:103630000120064328690001296A40EA0130064357
:1036400027F0220727F088076969686840EA0110B7
:1036500007432068C0F808802068866120680762F8
:10366000012084F8460084F83E0001213F200155E6
:10367000012084F8420043200155012084F83D00D8
:103680000020A1E770472DE9F04304460D4694F869
:103690003E603F20075D94F84280432010F804907C
:1036A0006DB9012E02D1B8F1010F02D00120BDE8A1
:1036B000F083022084F83E0084F8420025E0042DC7
:1036C0000CD1012F02D1B9F1010F01D00120EEE799
:1036D00002213F2001554320015516E0012E07D15C
:1036E000012F05D1B8F1010F02D1B9F1010F01D0BD
:1036F0000120DCE7022084F83E0002213F20015532
:10370000022084F842004320015515B1042D0CD14C
:1037100005E001220021206803F030FC10E00122C6
:103720000421206803F02AFC0AE00122002120681D
:1037300003F024FC01220421206803F01FFC00BFD9
:1037400000BF2068006840F0010021680860002088
:10375000ADE7000010B586B00446142101A8FDF7BE
:1037600009F86849206888421ED100BF00200090F7
:103770006548006840F0100063490860084600682A
:1037800000F01000009000BF00BF4FF4D440019043
:10379000022002900020039004900120059001A9CE
:1037A0005A48FFF7DDF8AAE05949206888421ED13F
:1037B00000BF002000905448006840F004005249C7
:1037C00008600846006800F00400009000BF00BFD9
:1037D0004FF470700190022002900020039004903A
:1037E0000320059001A94B48FFF7BAF887E04A4942
:1037F000206888421DD100BF002000904248006828
:1038000040F01000404908600846006800F01000D1
:10381000009000BF00BF60200190022002900020B5
:10382000039004900320059001A93848FFF798F809
:1038300065E03A49206888421DD100BF0020009011
:103840003148006840F002002F49086008460068CF
:1038500000F00200009000BF00BF88150190022018
:1038600002900020039004900320059001A92C48A9
:10387000FFF776F843E02B49206888421DD100BF4E
:10388000002000902048006840F002001E490860B7
:103890000846006800F00200009000BF00BF481515
:1038A00001900220029000200390049003200590D4
:1038B00001A91B48FFF754F821E01B492068884202
:1038C0001DD100BF002000900F48006840F00200AA
:1038D0000D4908600846006800F00200009000BF33
:1038E00000BF4FF44040019002200290002003905E
:1038F00004900920059001A90948FFF731F806B0A6
:1039000010BD0000000001403038024000100240AD
:103910000004014000080240004001400044014012
:103920000004024000480140001800402DE9F04129
:1039300004460D461646002700BF94F83C000128B7
:1039400002D10220BDE8F081012084F83C0000BFD4
:1039500036B1042E1BD0082E31D00C2E5ED145E09E
:103960002946206803F01CFB2068806940F00800AD
:10397000216888612068806920F0040021688861DE
:1039800020688069296908432168886148E02946E0
:10399000206803F03DFB2068806940F400602168E6
:1039A00088612068806920F48060216888612068CF
:1039B0008069296940EA01202168886130E0294650
:1039C000206803F063FB2068C06940F008002168AC
:1039D000C8612068C06920F004002168C8612068BF
:1039E000C069296908432168C86119E0294620682F
:1039F00003F088FB2068C06940F400602168C8615A
:103A00002068C06920F480602168C8612068C069AE
:103A1000296940EA01202168C86101E0012700BF4F
:103A200000BF00BF002084F83C0000BF384689E793
:103A300010B504460CB9012010BD94F83D0028B91A
:103A4000002084F83C00204600F026F8022084F88C
:103A50003D00211D206803F021FA012084F8460072
:103A600000BF84F83E0001213F2001554020015550
:103A70004120015500BF00BF012084F842004320CF
:103A80000155442001554520015500BF012084F80F
:103A90003D000020D0E7000008B53D4A0168914292
:103AA0000FD100BF002100913A49096841F001019E
:103AB000384A11601146096801F00101009100BF08
:103AC00065E0354A016891420FD100BF00210091A5
:103AD0003049096841F002012E4A11601146096817
:103AE00001F00201009100BF51E02C4A01689142AF
:103AF0000FD100BF002100912649096841F48031AF
:103B0000244A11601146096801F48031009100BF18
:103B10003DE0234A016891420FD100BF002100918E
:103B20001C49096841F400311A4A116011460968BC
:103B300001F40031009100BF29E01A4A0168914266
:103B40000FD100BF002100911249096841F4802182
:103B5000104A11601146096801F48021009100BFEC
:103B600015E0114A0168914211D100BF0021009176
:103B70000849091F096841F04001064A121F1160F7
:103B80001146096801F04001009100BF00BF08BD67
:103B90000000014044380240000401400040014060
:103BA00000440140004801400018004070B5044640
:103BB0000D4615B994F83E000BE0042D02D13F20CC
:103BC000005D06E0082D02D14020005D01E04120AB
:103BD000005D012801D0012070BD1DB9022084F8CC
:103BE0003E000EE0042D03D102213F20015508E0E4
:103BF000082D03D102214020015502E0022141207D
:103C0000015501222946206803F0B8F923492068AC
:103C1000884203D022492068884201D1012000E077
:103C2000002028B12068406C40F4004021684864BE
:103C30001A49206888421BD02068B0F1804F17D005
:103C400018492068884213D01749206888420FD04D
:103C50001649206888420BD011492068884207D055
:103C600013492068884203D01249206888420CD149
:103C70002068806800F00706062E0CD020680068D7
:103C800040F001002168086005E02068006840F00D
:103C900001002168086000209EE70000000001404C
:103CA000000401400004004000080040000C0040F7
:103CB0000040014000180040704770472DE9F84F60
:103CC0000446206805682068C668206847694FF088
:103CD0000009CA4605F00F09B9F1000F0AD105F035
:103CE000200038B106F0200020B1204603F083FA0E
:103CF000BDE8F88FB9F1000F7CD007F0010018B9CA
:103D000006F49070002875D005F0010030B106F47B
:103D1000807018B1606C40F00100606405F0040030
:103D200030B107F0010018B1606C40F0020060642F
:103D300005F0020030B107F0010018B1606C40F0EE
:103D40000400606405F0080048B106F0200010B9D6
:103D500007F0010018B1606C40F008006064606C0E
:103D6000002846D005F0200028B106F0200010B150
:103D7000204603F040FA20684069C0F3801A606C66
:103D800000F0080010B9BAF1000F2DD0204603F062
:103D9000ECF92068406900F04000402820D100BFC5
:103DA00000BF2168143151E8001F21F04000216854
:103DB000143141E80002002AF3D100BFE06B50B19A
:103DC0007F48E16B0865E06BFEF7A2FD88B1E06B10
:103DD000016D88470DE02046FFF76FFF09E009E01D
:103DE0002046FFF76AFF04E02046FFF766FF002049
:103DF00060647DE7206B012878D105F01000002871
:103E000074D006F010000028FAD000BF0020009007
:103E100020680068009020684068009000BF00BFE4
:103E20002068406900F04000402870D1E06B0068D5
:103E300040681FFA80F8B8F1000F58D0A08D4045B7
:103E400055DDA4F82E80E06BC069B0F5807F43D0CB
:103E500000BF00BF21680C3151E8001F21F48070C1
:103E600021680C3141E80002002AF3D100BF00BFF5
:103E700000BF2168143151E8001F21F001002168C2
:103E8000143141E80002002AF3D100BF00BF00BF97
:103E90002168143151E8001F21F0400021681431DD
:103EA00041E80002002AF3D100BF202084F842003C
:103EB0000020206300BF00BF21680C3151E8001FC3
:103EC00021F0100021680C3141E80002002AF3D1F2
:103ED00000BFE06BFEF7C6FC02206063A08DE28DA0
:103EE000801A81B22046FFF7E7FE0EE052E0A08D77
:103EF00040450AD1E06BC069B0F5807F05D1022052
:103F00006063A18D2046FFF7D7FEF1E6FFE7A08DA5
:103F1000E18D401A1FFA80F8E08DD0B3B8F1000FA0
:103F200037D000BF00BF21680C3151E8001F21F4D9
:103F3000907021680C3141E80002002AF3D100BFE3
:103F400000BF00BF2168143151E8001F21F00100BB
:103F50002168143141E80002002AF3D100BF20207B
:103F600084F842000020206300BF00BF21680C31AC
:103F700051E8001F21F0100021680C3141E80002D7
:103F8000002AF3D100BF0220606341462046FFF7BC
:103F900093FEADE605F0800030B106F0800018B168
:103FA000204603F0DDFAA3E605F0400030B106F04C
:103FB000400018B1204603F00EF999E600BF97E6DD
:103FC0005971000810B504460CB9012010BDA06954
:103FD00000B100E000BF94F8410028B9002084F847
:103FE0004000204600F02AF8242084F84100206890
:103FF000C06820F400502168C860204603F07AF9B8
:104000002068006920F490402168086120684069B8
:1040100020F02A00216848612068C06840F4005000
:104020002168C86000206064202084F8410084F882
:1040300042000020606300BFC8E7000010B586B0F2
:104040000446142101A8FCF795FB5F4920688842CB
:1040500039D100BF002000905C48006840F010009B
:104060005A4908600846006800F01000009000BF40
:1040700000BF00BF0020009054481438006840F092
:1040800001005249143908600846006800F0010038
:10409000009000BF00BF4FF4C0600190022002906A
:1040A00000200390032004900720059001A94848B0
:1040B000FEF756FC002211462520FEF7F1FD2520D3
:1040C000FEF7DAFD7DE04349206888423AD100BF1F
:1040D000002000903D48001F006840F400303B493C
:1040E000091F08600846006800F40030009000BF17
:1040F00000BF00BF0020009034481438006840F032
:1041000001003249143908600846006800F00100D7
:10411000009000BF00BF0C20019002200290002000
:104120000390032004900720059001A92848FEF77A
:1041300017FC002211462620FEF7B2FD2620FEF7CE
:104140009BFD3EE02449206888423AD100BF002010
:1041500000901E48001F006840F480201B49091F82
:1041600008600846006800F48020009000BF00BF8F
:1041700000BF0020009015481438006840F0080087
:104180001249143908600846006800F008000090E1
:1041900000BF00BF4FF44070019002200290002049
:1041A0000390032004900720059001A90B48FEF717
:1041B000D7FB002211462720FEF772FD2720FEF7CD
:1041C0005BFD06B010BD0000001001404438024005
:1041D000000002400044004000480040000C024043
:1041E00070B504460D46164694F8420020280BD1BF
:1041F00005B10EB9012070BD00202063324629466A
:10420000204603F08DF9F6E70220F4E7054A01683D
:10421000914206D0044A0168914202D10121034A29
:104220001170704700100140004400400100002060
:104230002DE9F84F04460E46174699464FF0000AFE
:1042400094F84100202850D106B117B90120BDE8EB
:10425000F88F00206064212084F84100FEF792FC72
:104260008246A784E784A068B0F5805F04D1206906
:1042700010B90025B04602E035464FF000081EE0B8
:104280005346002280212046CDF8009003F098F993
:1042900020B1202084F841000320D8E745B9B8F8C0
:1042A0000000C0F308002168486008F1020803E03C
:1042B0002878216848606D1CE08C401EE084E08C0A
:1042C0000028DDD15346002240212046CDF8009041
:1042D00003F076F920B1202084F841000320B6E7EE
:1042E000202084F841000020B1E70220AFE77047AA
:1042F00000BFFEE710B500224FF480610D48FEF7C5
:104300003BFC00224FF400610A48FEF735FC012017
:1043100004F07AFA012291020648FEF72DFC0120F2
:1043200004F072FA00224FF480610248FEF724FC88
:1043300010BD00000004024000B587B0142102A89F
:10434000FCF718FA00BF002001901348006840F005
:104350000200114908600846006800F00200019060
:1043600000BF00BF4FF44060029011200390012075
:1043700004900220059002A90848FEF7F1FA0122F4
:1043800091020648FEF7F8FB0122D1020348FEF72E
:10439000F3FB07B000BD00003038024000040240CB
:1043A00010B500224FF480610C48FEF7E5FB0122B6
:1043B000D1020A48FEF7E0FB012004F025FA0122B1
:1043C00091020648FEF7D8FB012004F01DFA0022F6
:1043D0004FF480610148FEF7CFFB10BD000402409E
:1043E00070B50546002400261CE000224FF48061D1
:1043F0001148FEF7C1FB012004F006FA01229102E8
:104400000D48FEF7B9FB6006040E4FF400610A4840
:10441000FEF7A0FB08B144F00104012004F0F4F918
:10442000701CC6B2082EE0DB15B9FFF763FF01E090
:10443000FFF7B6FF204670BD0004024070B5044689
:104440000D46002600F01AF8204600F08FF800F024
:104450005DF8284600F08AF800F058F800F00EF8F1
:1044600044F0010000F082F800F050F80120FFF75E
:10447000B7FF064600F026F8304670BD10B50122A1
:10448000D1020F48FEF778FB012291020C48FEF79B
:1044900073FB012004F0B8F900224FF400610848D2
:1044A000FEF76AFB012004F0AFF900224FF48061AF
:1044B0000348FEF761FB012004F0A6F910BD0000DF
:1044C0000004024010B500224FF480610E48FEF750
:1044D00053FB00224FF400610B48FEF74DFB012017
:1044E00004F092F9012291020748FEF745FB0120F2
:1044F00004F08AF90122D1020348FEF73DFB0120B6
:1045000004F082F910BD00000004024010B5002440
:104510000122D1021448FEF72FFB012004F074F9A8
:10452000012291021048FEF727FB012004F06CF9EC
:104530000AE0601CC4B2322C03DDFFF7C3FF002089
:1045400010BD012004F060F94FF400610648FEF749
:1045500001FB0028EDD100224FF480610248FEF7F4
:104560000BFB0120ECE700000004024070B504469C
:1045700000224FF480611748FEF7FEFA002526E07E
:1045800004F0800028B10122D1021248FEF7F4FAAB
:1045900005E000224FF400610E48FEF7EDFA6006D8
:1045A000040E012004F030F9012291020948FEF7BF
:1045B000E3FA012004F028F900224FF48061054855
:1045C000FEF7DAFA012004F01FF9681CC5B2082DC5
:1045D000D6DB70BD0004024070B504460D46164699
:1045E000FFF74CFF2046FFF7C1FFFFF78FFF28467C
:1045F000FFF7BCFFFFF78AFF3046FFF7B7FFFFF773
:1046000085FFFFF75FFF012070BD00002DE9F0413D
:1046100086B005460E461746002003900490009091
:10462000019002902E21D020FFF708FF8DF8140092
:104630002D21D020FFF702FF8DF815009DF8140002
:104640009DF8151040EA012000B2ADF80C003021B1
:10465000D020FFF7F3FE8DF814002F21D020FFF7B4
:10466000EDFE8DF815009DF814009DF8151040EA38
:10467000012000B2ADF80E003221D020FFF7DEFE9F
:104680008DF814003121D020FFF7D8FE8DF81500E9
:104690009DF814009DF8151040EA012000B2ADF815
:1046A0001000002416E0EC460CEB84030DF10C0C1A
:1046B0003CF9142004EBC40CDFF8348008EB4C0CFC
:1046C0000CF1020104EBC40C08EB4C0000F012F8F2
:1046D000601CC4B2032CE6DB009800B2288001986D
:1046E00000B23080029800B2388006B0BDE8F08198
:1046F000AE09002070B514460678751C057021F8C7
:104700001640057805F00705057000251D6000229C
:1047100006E031F912601D6835441D60551CEAB28F
:10472000082AF6DB1D68ED101D6070BD10B5002174
:10473000D020FFF783FEEA2801D1012010BD002020
:10474000FCE770B504460D4616463246294620461B
:10475000FFF75CFF70BD70B504460D461646324645
:104760002946204600F02EF870BD0000FEB500205E
:10477000029001900090002400250026002712E0FE
:104780006A4601A902A8FFF7E6FFBDF90800044444
:10479000BDF904000544BDF9000006440A20FEF7F7
:1047A000CBF8781CC7B2202FEADB601100B20449B5
:1047B0000880681100B24880701100B28880FEBD88
:1047C000700000202DE9F04188B005460E461746DE
:1047D0000020049005900190029003903421D02095
:1047E000FFF72CFE8DF818003321D020FFF726FEAE
:1047F0008DF819009DF818009DF8191040EA012065
:1048000000B2ADF810003621D020FFF717FE8DF86A
:1048100018003521D020FFF711FE8DF819009DF802
:1048200018009DF8191040EA012000B2ADF81200FE
:104830003821D020FFF702FE8DF818003721D02054
:10484000FFF7FCFD8DF819009DF818009DF8191070
:1048500040EA012000B2ADF81400002417E00DF189
:10486000040C0CEB84030DF1100C3CF9142004EB48
:10487000C40CDFF8488008EB4C0C0CF1020104EB8F
:10488000C40C08EB4C00FFF735FF601CC4B2032CCE
:10489000E5DB0B4909880198401A00B228800849D5
:1048A00049880298401A00B23080054989880398E7
:1048B000401A00B2388008B0BDE8F08178090020C5
:1048C0007000002010B500227F21D020FFF784FE69
:1048D00001220621D020FFF77FFE0A20FEF72CF8E8
:1048E00001220621D020FFF777FE20227F21D02051
:1048F000FFF772FE07220021D020FFF76DFE332262
:104900000121D020FFF768FE07221121D020FFF7F8
:1049100063FE31221421D020FFF75EFE00227F21AA
:10492000D020FFF759FE6420FEF706F810BD10B541
:10493000FFF702FDFFF7FAFE50B1FFF7C3FFFFF7E5
:1049400015FF00F006F8082231210C2000F06FF866
:1049500010BD08B56B46022200218C2000F00CF837
:104960009DF80000482805D19DF80100092801D1D3
:10497000012008BD0020FCE72DE9F04707468846E6
:104980001646994630227F21D020FFF725FE3A4671
:104990000321D020FFF720FE42460421D020FFF75C
:1049A0001BFE46F080020521D020FFF715FE0022F5
:1049B0007F21D020FFF710FE0321D020FFF73EFD1E
:1049C000054645F020052A460321D020FFF704FEC6
:1049D0000520FDF7B1FF25F020052A460321D02050
:1049E000FFF7FAFD002409E004F13B00C1B2D0203A
:1049F000FFF724FD09F80400601CC4B2B442F3DBE5
:104A000030227F21D020FFF7E7FD0521D020FFF7DE
:104A100015FD054600BF2A460521D020FFF7DCFD25
:104A200000227F21D020FFF7D7FDBDE8F0872DE9D8
:104A3000F04105460E46174630227F21D020FFF771
:104A4000CBFD2A460721D020FFF7C6FD32460821BC
:104A5000D020FFF7C1FD3A460A21D020FFF7BCFD68
:104A600081220921D020FFF7B7FD00227F21D0202D
:104A7000FFF7B2FD0321D020FFF7E0FC044644F02D
:104A8000200422460321D020FFF7A6FD0520FDF7D4
:104A900053FF24F0200422460321D020FFF79CFD81
:104AA00030227F21D020FFF797FD0521D020FFF78E
:104AB000C5FC044600BF22460521D020FFF78CFD2F
:104AC00000227F21D020FFF787FDBDE8F0810000A4
:104AD00010B52A4A911E881EFFF733FE274A921FFF
:104AE000911E881EFFF737FE24482238C08B2349C9
:104AF000223988810846018CC181418C0182008B5A
:104B00001E49223948820846418B8182818BC182AD
:104B100080891A4922390988401A00B21749223976
:104B2000C8830846C0894988401A01B21348223810
:104B30000184008A114922398988401A00F5804091
:104B400001B20E4822384184408A0C492239C98872
:104B5000401A00B20949223908830846818A00892F
:104B6000081A01B2054822384183C18A4089081ACF
:104B700001B202482238818310BD0000060A0020DD
:104B800010B500201349088048808880C880002123
:104B900010480181418100200E49888100210D4883
:104BA000C181018200200B4948820021094881828D
:104BB000C182002007490883002106484183818380
:104BC00000200449C8830021024801844184FFF782
:104BD000AEFE10BDE409002000B50649A1F11200A7
:104BE00000F00AF80349891DA1F11E0000F004F845
:104BF00000BD0000FC0900200A8802804A8842802B
:104C00008A8882807047000070B52DED088B0546BC
:104C1000B0EE40AAB0EE609A3F48854201D1002430
:104C20000AE03E48854201D1012405E03C48854226
:104C300001D1022400E0032439EE4A8A95ED030AEB
:104C4000384800EB8400D0ED000A78EE600A60EE90
:104C500020AA95ED040A20EE08BAB0EEC80ADFEDEE
:104C6000320AB4EEE00AF1EE10FA16D29FED2F0AE6
:104C7000B0EE40BAB5EEC09AF1EE10FA0DD12C4864
:104C800000EB840090ED000ADFED2A0A20EE200AF6
:104C9000274800EB840080ED000A7AEE8B9AB0EE94
:104CA000690A03F0BCFD18B99FED200AF0EE409AA6
:104CB0001F4800EB840090ED000A70EE298A9FEDFA
:104CC0001E0AF4EEC08AF1EE10FA04DD9FED1A0A16
:104CD000F0EE408A0AE09FED190AF4EEC08AF1EE88
:104CE00010FA03D29FED150AF0EE408A104800EB4F
:104CF0008400C0ED008A0B4800EB840080ED008A40
:104D00000B4800EB840090ED000ABDEEC00A10EEE7
:104D1000100ABDEC088B70BDEC08002000090020D3
:104D2000140900203C0900200AD7A33C0000000021
:104D30004C090020CDCC4C3F00788246007882C6DA
:104D400010B52DED028BB0EE408AF0EE608AF0EEE9
:104D5000680AB0EE480A0348FFF756FFBDEC028B25
:104D600010BD0000EC08002010B52DED028BB0EE58
:104D7000408AF0EE608AF0EE680AB0EE480A034816
:104D8000FFF742FFBDEC028B10BD000000090020C0
:104D900010B52DED028BB0EE408AF0EE608AF0EE99
:104DA000680AB0EE480A0348FFF72EFFBDEC028BFD
:104DB00010BD00001409002010B52DED028BB0EEDF
:104DC000408AF0EE608AF0EE680AB0EE480A0348C6
:104DD000FFF71AFFBDEC028B10BD00002809002070
:104DE00010B5044608480088401C0749088008465A
:104DF0000088A04206DB002008804FF48071034841
:104E0000FDF7B0FE10BD000076000020001002404B
:104E100000B587B0142102A8FBF7ACFC00BF00204E
:104E200001901048006840F010000E4908600846E4
:104E3000006800F01000019000BF00BF88150290CC
:104E40000120039000200490059002A90648FDF778
:104E500087FD00224FF480710348FDF78DFE07B0F7
:104E600000BD0000303802400010024008B500BF0D
:104E7000002000901D48006840F080001B49086039
:104E80000846006800F08000009000BF00BF00BF2F
:104E9000002000900846006840F0010008600846C5
:104EA000006800F00100009000BF00BF00BF0020BC
:104EB00000900846006840F002000860084600685C
:104EC00000F00200009000BF00BF00BF0020009073
:104ED0000846006840F0040008600846006800F0DA
:104EE0000400009000BF00BF08BD00003038024041
:104EF00000B587B01C216846FBF73CFC11481249FD
:104F00000860A720486000210F48816044F29F118B
:104F1000C1600021016180218161FEF789FD08B136
:104F2000FDF71DFC6020009000200190029004908D
:104F3000002269460448FEF7F9FC0348FEF70AFC24
:104F400007B000BD004401401C05002000B587B03B
:104F50001C216846FBF70EFC114812490860A72087
:104F6000486000210F48816044F29F11C160002118
:104F7000016180218161FEF75BFD08B1FDF7EFFB68
:104F80006020009000200190029004900022694669
:104F90000448FEF7CBFC0348FEF7DCFB07B000BD7E
:104FA000004801406405002000B587B01C21684618
:104FB000FBF7E0FB174818490860532048600021C0
:104FC0001548816044F61F61C160002101618021A4
:104FD0008161FEF72DFD08B1FDF7C1FB6020009057
:104FE0000020019002900490002269460A48FEF7D2
:104FF0009DFC08B1FDF7B3FB042269460648FEF7A5
:1050000095FC08B1FDF7ABFB0348FEF7A3FB07B027
:1050100000BD000000180040AC05002000B591B0B4
:1050200000200F9010901C2108A8FBF7A3FB202163
:105030006846FBF79FFB284828490860A72048607E
:1050400000212648816044F29F11C1600021016166
:10505000416180218161FEF7EBFC08B1FDF77FFB28
:1050600000200F9010900FA91C48FEF74DFA08B1D0
:10507000FDF775FB60200890002009900A900B90C6
:105080000C900D900E90002208A91448FEF74EFCDB
:10509000042208A91148FEF749FC082208A90F4874
:1050A000FEF744FC0C2208A90C48FEF73FFC002048
:1050B000009001900290039004904FF400500590EE
:1050C0000020079069460548FEF7E4F90348FEF71B
:1050D00041FB11B000BD000000000140440400206D
:1050E00000B591B000200F9010901C2108A8FBF78C
:1050F00041FB20216846FBF73DFB2F482F49086004
:10510000A720486000212D48816044F61F61C160DE
:1051100000210161416180218161FEF789FC08B1B4
:10512000FDF71DFB00200F9010900FA92348FEF7FC
:10513000EBF908B1FDF713FB6020089000200990FF
:105140000A900B900C900D900E90002208A91B481D
:10515000FEF7ECFB08B1FDF702FB042208A9174893
:10516000FEF7E4FB08B1FDF7FAFA082208A9134894
:10517000FEF7DCFB08B1FDF7F2FA0C2208A90F4894
:10518000FEF7D4FB08B1FDF7EAFA00200090019089
:105190000290039004904FF4005005900020079077
:1051A00069460648FEF776F908B1FDF7D8FA0348D4
:1051B000FEF7D0FA11B000BD000401408C040020BD
:1051C00000B587B01C216846FBF7D4FA144815498E
:1051D0000860A720486000211248816044F29F11B6
:1051E000C1600021016180218161FEF721FC08B1CD
:1051F000FDF7B5FA60200090002001900290049025
:10520000002269460748FEF791FB042269460548DB
:10521000FEF78CFB0348FEF79DFA07B000BD0000C7
:1052200000400140D404002010B50B480B49086031
:105230004FF4E1304860002108488160C16001619D
:105240000C21416100218161C161FEF7BBFE08B103
:10525000FDF785FA10BD000000100140F4050020A4
:1052600010B50B480B4908604FF4E130486000214D
:1052700008488160C16001610C21416100218161A8
:10528000C161FEF79FFE08B1FDF769FA10BD00008D
:10529000004400403C06002010B50B480B49086054
:1052A0004FF4E1304860002108488160C16001612D
:1052B0000C21416100218161C161FEF783FE08B1CB
:1052C000FDF74DFA10BD00000048004084060020A4
:1052D0009FED260A264880ED000A9FED240A254806
:1052E00080ED000A9FED210A234880ED000A00208E
:1052F0002249086022490860224908602249086062
:105300009FED1A0A214880ED000A9FED180A2048F7
:1053100080ED000A9FED150A1E4880ED000A9FED02
:10532000130A1D4880ED000A9FED100A1B4880ED0E
:10533000000A9FED0E0A1A4880ED000A9FED0B0A45
:10534000184880ED000A9FED090A174880ED000A11
:105350009FED060A154880ED000A9FED040A80EDD6
:10536000010A9FED020A80ED020A7047000000006A
:1053700034000020380000203C00002040000020C5
:1053800044000020480000204C0000205000002075
:1053900054000020580000205C0000206000002025
:1053A00064000020680000206C0000206C090020D0
:1053B00000BFFEE700B587B02748007818B14FF06E
:1053C000FF3007B000BD00212448FEF7EFFB0421A9
:1053D0002248FEF7EBFB08212048FEF7E7FB0C21F3
:1053E0001E48FEF7E3FB00211D48FEF7DFFB04210A
:1053F0001B48FEF7DBFB00211A48FEF7D7FB002114
:105400001948FEF7D3FB142102A8FBF7B3F900BF3C
:10541000002001901548006840F00800134908601A
:105420000846006800F00800019000BF00BF082097
:105430000290002003900120049002A90C48FDF77F
:105440008FFA00231A461946184601F045FC012040
:10545000014908700020B4E7240000204404002023
:10546000D40400201C0500206405002030380240D0
:10547000000C024010B508210348FDF76BFB08B98A
:10548000012010BD0020FCE7000C024000BFFEE739
:1054900070B500240CE0002506E00020074901EB70
:1054A000C5010855681CC5B2802DF6DB601CC4B26E
:1054B000082CF0DB00F0A8F870BD0000080A0020FE
:1054C00000B587B0142102A8FBF754F900BF0020F3
:1054D00001900E48006840F008000C49086008463A
:1054E000006800F00800019000BF00BF4FF4F040DA
:1054F000029001200390002004900220059002A950
:105500000348FDF72DFA07B000BD00003038024017
:10551000000C024010B5FFF7D3FF00224FF480517A
:105520003848FDF729FB6420FDF706FA0122110334
:105530003448FDF721FB0021AE2000F0F3FB0021F1
:10554000D52000F0EFFB0021502000F0EBFB002104
:10555000A82000F0E7FB00213F2000F0E3FB002142
:10556000D32000F0DFFB0021084600F0DBFB002128
:10557000402000F0D7FB00218D2000F0D3FB00215C
:10558000142000F0CFFB0021202000F0CBFB0021F5
:10559000022000F0C7FB0021A12000F0C3FB002186
:1055A000C82000F0BFFB0021DA2000F0BBFB002187
:1055B000122000F0B7FB0021812000F0B3FB002196
:1055C000CF2000F0AFFB0021D92000F0ABFB002181
:1055D000F12000F0A7FB0021DB2000F0A3FB00215D
:1055E000302000F09FFB0021A42000F09BFB002155
:1055F000A62000F097FB0021AF2000F093FBFFF7FF
:1056000047FF10BD000C024070B500241CE004F1FF
:10561000B001C8B2002100F085FB0021084600F06F
:1056200081FB0021102000F07DFB002508E00849E7
:1056300001EBC501085D012100F074FB681CC5B2D7
:10564000802DF4DB601CC4B2082CE0DB70BD0000D0
:10565000080A002070B504460D4605F1B001C8B235
:10566000002100F05FFB102141EA1410002100F03E
:1056700059FB04F00F0141F00100002100F052FB42
:1056800070BD00002DE9F04707460E46904699464A
:1056900000250024A8F12000C5B27F2F02DD0027DD
:1056A000B01CC6B2B9F1100F24D131463846FFF70D
:1056B000D1FF002408E004EB0511194A505C0121D8
:1056C00000F030FB601CC4B2082CF4DB701CC1B2CB
:1056D0003846FFF7BFFF002409E004EB051108314D
:1056E0000F4A505C012100F01DFB601CC4B2082C65
:1056F000F3DB12E031463846FFF7ACFF00240AE046
:1057000005EB4501074A02EB4101085D012100F06C
:1057100009FB601CC4B2062CF2DBBDE8F087000078
:1057200068AB000840A900082DE9FF5F07469146D5
:105730001E460E9D4FF0000A002435E0301B401E2F
:10574000C1B20A2003F030FFB9FBF0F00A21B0FB30
:10575000F1F201FB1208BAF1000F14D1701EA04241
:1057600011DDB8F1000F0CD1AB4605EBDB71491030
:1057700001FB0471C8B22B4620220199FFF782FF7A
:1057800010E04FF0010AAB4605EBDB71491001FB5D
:105790000471C8B208F13001CAB22B460199FFF773
:1057A00071FF00BF601CC4B2B442C7DBBDE8FF9FFD
:1057B0002DE9F04104460F46154600260EE0AA5D8D
:1057C0000C2339462046FFF75DFFA01DC4B27A2C9A
:1057D00002DD0024B81CC7B2701CC6B2A85D002848
:1057E000EDD1BDE8F081000038B54FF48061FE488E
:1057F000FAF79EFFFDA200210846FFF7D9FFFDA2A0
:1058000000213C20FFF7D4FFFB48B0F91C00002822
:1058100011DA0C232D2200214E20FFF733FF0C203C
:105820000090F548B0F91C004242052300215420A5
:10583000FFF77AFF0FE00C232B2200214E20FFF709
:1058400021FF0C200090EC48B0F91C20052300211A
:105850005420FFF769FFE9A20A210020FFF7A8FF03
:10586000E74890ED000AB5EEC00AF1EE10FA1AD240
:105870000C232D220A210F20FFF704FF0C2000909B
:10588000DF4890ED000AB1EE400ADFEDDE0A20EEBF
:10589000200ABDEEC00A10EE102A05230A211520A9
:1058A000FFF742FF17E00C232B220A210F20FFF7FE
:1058B000E9FE0C200090D24890ED000ADFEDD10AFD
:1058C00020EE200ABDEEC00A10EE102A05230A21A0
:1058D0001520FFF729FFCC4890ED000AB5EEC00A6D
:1058E000F1EE10FA1AD20C232D220A213C20FFF7E8
:1058F000C9FE0C200090C44890ED000AB1EE400AA9
:10590000DFEDC00A20EE200ABDEEC00A10EE102A1C
:1059100005230A214220FFF707FF17E00C232B2263
:105920000A213C20FFF7AEFE0C200090B64890ED17
:10593000000ADFEDB40A20EE200ABDEEC00A10EE28
:10594000102A05230A214220FFF7EEFEAFA2142100
:105950000020FFF72DFFAE4890ED000AB5EEC00A1B
:10596000F1EE10FA1AD20C232D2214210F20FFF78A
:1059700089FE0C200090A64890ED000AB1EE400A86
:10598000DFEDA00A20EE200ABDEEC00A10EE102ABC
:10599000052314211520FFF7C7FE17E00C232B2247
:1059A00014210F20FFF76EFE0C200090984890ED18
:1059B000000ADFED940A20EE200ABDEEC00A10EEC8
:1059C000102A052314211520FFF7AEFE914890ED13
:1059D000000AB5EEC00AF1EE10FA1AD20C232D22FD
:1059E00014213C20FFF74EFE0C200090894890EDDA
:1059F000000AB1EE400ADFED830A20EE200ABDEE78
:105A0000C00A10EE102A052314214220FFF78CFE55
:105A100017E00C232B2214213C20FFF733FE0C202F
:105A200000907C4890ED000ADFED760A20EE200A17
:105A3000BDEEC00A10EE102A052314214220FFF704
:105A400073FE75A21E210020FFF7B2FE734890ED91
:105A5000000AB5EEC00AF1EE10FA1AD20C232D227C
:105A60001E210F20FFF70EFE0C2000906B4890EDDA
:105A7000000AB1EE400ADFED630A20EE200ABDEE17
:105A8000C00A10EE102A05231E211520FFF74CFE38
:105A900017E00C232B221E210F20FFF7F3FD0C2013
:105AA00000905E4890ED000ADFED560A20EE200AD5
:105AB000BDEEC00A10EE102A05231E211520FFF7A7
:105AC00033FE574890ED000AB5EEC00AF1EE10FA29
:105AD0001AD20C232D221E213C20FFF7D3FD0C20CF
